:060000000A128A11872B91
:10070E0083010A128A11BE2EF1007108831203139F
:10071E008800071087100715F930F0006400F00B01
:10072E00952B992B64008312031307110800F10017
:10073E007108831203138800071487100715F93008
:10074E00F0006400F00BA82BAC2B64008312031393
:10075E000711080038300A128A118B230A128A11E7
:10076E0001300A128A118B230A128A1106300A12DC
:10077E008A118B230A128A110C300A128A118B23CA
:10078E000A128A1108000310003003180130831278
:10079E000313AD00AB1FD42BD52BDD2BAA09AB0950
:1007AE00AA0A0319AB0AAD010314AD0D2A08F00015
:1007BE002B08F100F2018E30FC007C08F3002D08AE
:1007CE00FD007D08F4000A128A11C8240A128A114B
:1007DE00700883120313AA007108AB007208AC00F4
:1007EE0008000310003003180130F600F31F002C30
:1007FE00012C092CF209F309F20A0319F30AF60186
:10080E000314F60DF11F0C2C0D2C122CF009F1090E
:10081E00F00A0319F10A710870040319172C182C29
:10082E00482CF5010314F50D272C01300310F00DA3
:10083E00F10DFF3E031D1D2C0130F4007408F50769
:10084E00F11F2A2C2B2C1C2C71087302031D312C2A
:10085E0070087202031C342C352C3B2C7008F202EB
:10086E007108031CF303F30201300310F10CF00CBA
:10087E00FF3E031D3C2C0130F502031D472C482C76
:10088E002B2C7608031D4C2C512CF209F309F20A7D
:10089E000319F30A7308F101F1077208F001F0076A
:1008AE0008000310003003180130F600F11F602C11
:1008BE00612C692CF009F109F00A0319F10AF6010D
:1008CE000314F60DF31F6C2C6D2C762CF209F30924
:1008DE00F20A0319F30A0130F4007408F606003028
:1008EE00F7000030F8007108700403197F2C802C7B
:1008FE00B82CF5010314F50D8F2C01300310F00DFB
:10090E00F10DFF3E031D852C0130F4007408F50730
:10091E00F11F922C932C842C01300310F70DF80D3F
:10092E00FF3E031D942C71087302031DA02C70084A
:10093E007202031CA32CA42CAB2C7008F2027108BB
:10094E00031CF303F302771401300310F10CF00CC7
:10095E00FF3E031DAC2C0130F502031DB72CB82C45
:10096E00932C7608031DBC2CC12CF709F809F70A45
:10097E000319F80A7808F101F1077708F001F0077A
:10098E0008007308031DCC2CD32C7208710470045C
:10099E00031DD22CD32CDA2C0030F0000030F100E5
:1009AE000030F2003C2DE72C0130F5007508F307FE
:1009BE0001300310F20CF10CF00CFF3E031DE02C85
:1009CE00FE307205031DEC2CED2CDB2C042D0130BA
:1009DE00F5007508F3070130F007003003180130F9
:1009EE00F107003003180130F20701300310F20C4A
:1009FE00F10CF00CFF3E031DFD2CFF307205031DA4
:100A0E00092D0A2DEE2C152D0130F30201300310A5
:100A1E00F00DF10DF20DFF3E031D0E2DF11F182DE1
:100A2E00192D0B2D73181C2D1D2D232DFF30F005A8
:100A3E007F30F105FF30F2050310F30C7308F5005B
:100A4E00F601F70110300310F50DF60DF70DFF3E10
:100A5E00031D2A2D7508F0047608F1047708F204B8
:100A6E007408031D3B2D3C2DF217080078088312E5
:100A7E000313A0007908A1007A08A2000310210D2B
:100A8E00220DA3002308A900A908031D4F2D502DE8
:100A9E00592D0030FB000030FA000030F900003014
:100AAE00F800D82D7808A0007908A1007A08A200D5
:100ABE0017300310A20CA10CA00CFF3E031D602DDD
:100ACE002008A3002308A400F917FF30F805FF3013
:100ADE00F9050030FA057808A5007908A6007A080D
:100AEE00A700A8018E30A902A91F7E2D7F2DA12D52
:100AFE002908803A8F3E0318852D862D8F2D0030C4
:100B0E00FB000030FA000030F9000030F800D82D5C
:100B1E0001300310A80CA70CA60CA50CFF3E031D5C
:100B2E00902D0130A0002008A907031D9F2DA02D98
:100B3E008F2DC12D18302902031CA62DA72DB02DE7
:100B4E000030FB000030FA000030F9000030F800F1
:100B5E00D82DBC2D0130A0000310A50DA60DA70D9C
:100B6E00A80DA00BB32D0130A902A908031DC02D9D
:100B7E00C12DB12D2408031DC52DD02DA509A60903
:100B8E00A709A809A50A0319A60A0319A70A031992
:100B9E00A80A2808FB002708FA002608F9002508ED
:100BAE00F8000800831203132E08B4002F08B500B6
:100BBE003008B6000310350D360DB7003708B800F3
:100BCE00B808031DEB2DEC2DF32D0030AE000030D8
:100BDE00AF000030B000BD2E3108B4003208B500B1
:100BEE003308B6000310350D360DB7003708BD00BB
:100BFE00BD08031D032E042E0B2E0030AE00003058
:100C0E00AF000030B000BD2E3D087B3EB40034086E
:100C1E00B8072E08B4002F08B5003008B600103003
:100C2E000310B60CB50CB40CFF3E031D172E340882
:100C3E00B7003708BD003108B4003208B5003308DC
:100C4E00B60010300310B60CB50CB40CFF3E031DED
:100C5E00292E3408B7003708BD068030B40034089A
:100C6E00BD05AF17B217FF30B105FF30B20500302A
:100C7E00B3050030B9000030BA000030BB000730B9
:100C8E00B4003408BC002E1C4D2E4E2E5E2E3108A4
:100C9E00B907320803110318320A0319572EBA077F
:100CAE00330803110318330A03195E2EBB070130F4
:100CBE000310B00CAF0CAE0CFF3E031D5F2E0130C7
:100CCE000310B10DB20DB30DFF3E031D672E0130A3
:100CDE00BC02031D732E742E4A2E0930B400340844
:100CEE00BC002E1C7B2E7C2E8C2E3108B9073208B0
:100CFE0003110318320A0319852EBA07330803119C
:100D0E000318330A03198C2EBB0701300310B00CE5
:100D1E00AF0CAE0CFF3E031D8D2E01300310BB0C2D
:100D2E00BA0CB90CFF3E031D952E0130BC02031DFB
:100D3E00A12EA22E782E3908F0003A08F1003B08B9
:100D4E00F2003808B4003408F3003D08B500350849
:100D5E00F4000A128A11C8240A128A11700883122A
:100D6E000313AE007108AF007208B0000800013026
:100D7E00831203139F00C030831603139F00870155
:100D8E0088010A128A11B1230A128A1183120313DF
:100D9E009F121F129F110330C0008830BF005630C3
:100DAE00BE00BE0BD82EBF0BD82EC00BD82E831272
:100DBE0003131F0804389F000330C0008830BF00A3
:100DCE005630BE00BE0BE92EBF0BE92EC00BE92E2E
:100DDE00831203131E08BE00BF010830FE0003106D
:100DEE00BE0DBF0DFE0BF62E3E08CD003F08CE0009
:100DFE00831603131E08831203134D07CD004E08EE
:100E0E0003184E0ACE004E08AB01AB074D08AA01DF
:100E1E00AA070A128A11CA230A128A11831203130D
:100E2E002A08B1002B08B2002C08B300C330AE0064
:100E3E00F530AF003E30B0000A128A11D9250A12E1
:100E4E008A11831203132E08F8002F08F9003008B8
:100E5E00FA000A128A113D250A128A1179088312A4
:100E6E000313CE01CE077808CD01CD070A30F0006E
:100E7E000030F1004E08F301F3074D08F201F207BE
:100E8E000A128A1158240A128A1171088312031346
:100E9E00CA01CA077008C901C9070A30F00000303C
:100EAE00F1004E08F301F3074D08F201F2070A12A2
:100EBE008A11F8230A128A11710883120313C201D0
:100ECE00C2077008C101C1070A30F0000030F100FE
:100EDE004A08F301F3074908F201F2070A128A11D0
:100EEE0058240A128A11710883120313CC01CC07FD
:100EFE007008CB01CB070A30F0000030F1004A0831
:100F0E00F301F3074908F201F2070A128A11F823D6
:100F1E000A128A11710883120313C401C4077008E0
:100F2E00C301C3070A30F0000030F1004C08F30192
:100F3E00F3074B08F201F2070A128A1158240A121B
:100F4E008A11710883120313C601C6077008C50102
:100F5E00C5070A30F0000030F1004C08F301F3072A
:100F6E004B08F201F2070A128A11F8230A128A11AB
:100F7E00710883120313C801C8077008C701C70799
:100F8E0080300A128A118B230A128A1183120313DC
:100F9E004508303E0A128A119E230A128A118312C4
:100FAE0003134708303E0A128A119E230A128A1131
:100FBE00831203134308303E0A128A119E230A122B
:100FCE008A11831203134108303E0A128A119E239E
:100FDE000A128A11823083120313BF00DD30BE0065
:100FEE00BE0BF72FBF0BF72FFC2FCD2E0A128A1137
:020FFE000028C9
:02400E00723FFF
:00000001FF
