:060000000A128A11D62E3F
:100D8A007E088A007F088200C5260A128A1180001E
:100D9A00840A04087D0603190034FF0A0319FE0AAF
:100DAA00C92E83136630FD000730FE002730FF008E
:100DBA00453084000A128A11C9260A128A1183014F
:100DCA000A128A11482FF10071088312031388004E
:100DDA00071087100715F930F0006400F00BF22EA7
:100DEA00F62E64008312031307110800F10071083C
:100DFA00831203138800071487100715F930F000CF
:100E0A006400F00B052F092F6400831203130711E6
:100E1A00080038300A128A11E8260A128A110130AB
:100E2A000A128A11E8260A128A1106300A128A114F
:100E3A00E8260A128A110C300A128A11E8260A12C6
:100E4A008A1108002034453443344534203444346C
:100E5A00453450344134523454344D3445344E348C
:100E6A005434203400342034203420345034413473
:100E7A004E3449344D3441344C34413452342034A4
:100E8A0020342034003483160313870188010A12A0
:100E9A008A110E270A128A11203084004530F20086
:100EAA000408F3001130F400720884008313000868
:100EBA00F500F20A7308840075088000F30AF40B3F
:100ECA00592F80300A128A11E8260A128A11003034
:100EDA0083120313C1000030C2004208803AFE00A8
:100EEA0080307E02031D7B2F10304102031C7E2FAF
:100EFA007F2F802FA12F831203134108203E8400E5
:100F0A00831300080A128A11FB260A128A11013079
:100F1A0083120313C1070318C20A0030C20742082A
:100F2A00803AFE0080307E02031D9D2F1030410260
:100F3A00031CA02FA12F802F313084005630F200DD
:100F4A000408F3001030F4007208840083130008C8
:100F5A00F500F20A7308840075088000F30AF40B9E
:100F6A00A92FC0300A128A11E8260A128A11003003
:100F7A0083120313C3000030C4004408803AFE0001
:100F8A0080307E02031DCB2F0F304302031CCE2F6D
:100F9A00CF2FD02FF12F831203134308313E840041
:100FAA00831300080A128A11FB260A128A110130D9
:100FBA0083120313C3070318C40A0030C407440882
:100FCA00803AFE0080307E02031DED2F0F3043026F
:100FDA00031CF02FF12FD02F0630F4000E30F3004F
:100FEA00B030F200F20BF72FF30BF72FF40BF72FB9
:060FFA000A128A11002812
:02400E00723FFF
:00000001FF
