:060000000A128A11E12D35
:100BA0007E088A007F088200D0250A128A11800000
:100BB000840A04087D0603190034FF0A0319FE0A9B
:100BC000D42D83135630FD000630FE001930FF008F
:100BD0003F3084000A128A11D4250A128A11830137
:100BE0000A128A11302EF100710883120313880053
:100BF000071087100715F930F0006400F00BFD2D89
:100C0000012E64008312031307110800F10071081C
:100C1000831203138800071487100715F930F000BA
:100C20006400F00B102E142E6400831203130711BE
:100C3000080073346134723461346E3400347234B9
:100C400069347434683469340034733461346E3414
:100C500074346F3400346D34753472347534003448
:100C600083160313880183120313880180308316CF
:100C700003138700831203138701243083160313A1
:100C800098009030831203139800831603131815ED
:100C90001930990001300A128A11F3250A128A11BB
:100CA000831203131A08323A031D572E582EBC2EF6
:100CB00001300A128A11F3250A128A1120308400A9
:100CC000831203133F0883138000840A40088000C6
:100CD000840A41088000840A42088000840A43088C
:100CE0008000840A4408800080300A128A11F325AB
:100CF0000A128A11003083120313B7000030B800C3
:100D00003808803AFE0080307E02031D892E0530AF
:100D10003702031C8C2E8D2E8E2EAF2E83120313C2
:100D20003708203E8400831300080A128A11062621
:100D30000A128A11013083120313B7070318B80A85
:100D40000030B8073808803AFE0080307E02031D6C
:100D5000AB2E05303702031CAE2EAF2E8E2E063082
:100D6000F4000E30F300B030F200F20BB52EF30BAE
:100D7000B52EF40BB52EFC2F831203131A08303A4C
:100D8000031DC32EC42E282F01300A128A11F32509
:100D90000A128A1126308400831203134508831334
:100DA0008000840A46088000840A47088000840A7C
:100DB00048088000840A49088000840A4A088000A4
:100DC00080300A128A11F3250A128A110030831228
:100DD0000313B9000030BA003A08803AFE008030B0
:100DE0007E02031DF52E05303902031CF82EF92E64
:100DF000FA2E1B2F831203133908263E8400831317
:100E000000080A128A1106260A128A11013083127A
:100E10000313B9070318BA0A0030BA073A08803A30
:100E2000FE0080307E02031D172F05303902031C9F
:100E30001A2F1B2FFA2E0630F4000E30F300B030BC
:100E4000F200F20B212FF30B212FF40B212FFC2F9B
:100E5000831203131A08363A031D2F2F302F912FB8
:100E600001300A128A11F3250A128A1132308400E5
:100E700083120313510883138000840A52088000F0
:100E8000840A53088000840A54088000840A5508A4
:100E9000800080300A128A11F3250A128A1100306C
:100EA00083120313BB000030BC003C08803AFE00F4
:100EB00080307E02031D5E2F04303B02031C612F35
:100EC000622F632F842F831203133B08323E84006A
:100ED000831300080A128A1106260A128A110130A9
:100EE00083120313BB070318BC0A0030BC073C087D
:100EF000803AFE0080307E02031D802F04303B02CA
:100F0000031C832F842F632F0630F4000E30F30070
:100F1000B030F200F20B8A2FF30B8A2FF40B8A2FDA
:100F2000FC2F831203131A08343A031D982F992FAC
:100F3000FC2F01300A128A11F3250A128A112C3073
:100F40008400831203134B0883138000840A4C0827
:100F50008000840A4D088000840A4E088000840ABC
:100F60004F088000840A5008800080300A128A11DD
:100F7000F3250A128A11003083120313BD000030DA
:100F8000BE003E08803AFE0080307E02031DCA2F5C
:100F900005303D02031CCD2FCE2FCF2FF02F831213
:100FA00003133D082C3E8400831300080A128A11A3
:100FB00006260A128A11013083120313BD07031893
:100FC000BE0A0030BE073E08803AFE0080307E0236
:100FD000031DEC2F05303D02031CEF2FF02FCF2F08
:100FE0000630F4000E30F300B030F200F20BF62FB2
:100FF000F30BF62FF40BF62F502E0A128A1100284D
:02400E00723FFF
:00000001FF
