:060000000A128A11112F03
:100E00007E088A007F08820000270A128A1180006B
:100E1000840A04087D0603190034FF0A0319FE0A38
:100E2000042F83134A30FD000730FE002330FF00FB
:100E3000363084000A128A1104270A128A118301AB
:100E40000A128A11372F3F340034063400345B34E1
:100E500000344F340034663400346D3400347D3453
:100E60000034073400347F340034673400340030F9
:100E700083120313B4000030B500203084003630F4
:100E8000F0000408F1000A30F200700884008313B7
:100E90000008F300F00A7108840073088000F10A6A
:100EA000F20B452F831603138701003083120313BF
:100EB000B4000030B5003508803AFE0080307E0274
:100EC000031D642F05303402031C672F682F692F20
:100ED0009D2F831203133408F0007007203E840016
:100EE0008313000887000D30F100FB30F000F00B99
:100EF000772FF10B772F7C2F8312031387010D308F
:100F0000F100FB30F000F00B832FF10B832F882FC3
:100F1000013083120313B4070318B50A0030B50774
:100F20003508803AFE0080307E02031D992F05307F
:100F30003402031C9C2F9D2F692F2A3084004030DF
:100F4000F0000408F1000A30F200700884008313F6
:100F50000008F300F00A7108840073088000F10AA9
:100F6000F20BA52F8316031388010030831203139D
:100F7000B4000030B5003508803AFE0080307E02B3
:100F8000031DC42F05303402031CC72FC82FC92FDF
:100F9000FD2F831203133408F00070072A3E8400EB
:100FA0008313000888000D30F100FB30F000F00BD7
:100FB000D72FF10BD72FDC2F8312031388010D30AD
:100FC000F100FB30F000F00BE32FF10BE32FE82FE3
:100FD000013083120313B4070318B50A0030B507B4
:100FE0003508803AFE0080307E02031DF92F05305F
:100FF0003402031CFC2FFD2FC92F0A128A1100286E
:02400E00723FFF
:00000001FF
