:060000000A128A11C42D52
:100B880083010A128A11D72EF10071088312031308
:100B98008800071087100715F930F0006400F00B83
:100BA800D22DD62D64008312031307110800F1001B
:100BB8007108831203138800071487100715F9308A
:100BC800F0006400F00BE52DE92D64008312031397
:100BD8000711080038300A128A11C8250A128A112A
:100BE80001300A128A11C8250A128A1106300A121F
:100BF8008A11C8250A128A110C300A128A11C825CE
:100C08000A128A1108000310003003180130F60098
:100C1800F31F0F2E102E182EF209F309F20A0319EA
:100C2800F30AF6010314F60DF11F1B2E1C2E212EBC
:100C3800F009F109F00A0319F10A7108700403199F
:100C4800262E272E572EF5010314F50D362E0130CA
:100C58000310F00DF10DFF3E031D2C2E0130F400A2
:100C68007408F507F11F392E3A2E2B2E71087302DE
:100C7800031D402E70087202031C432E442E4A2E78
:100C88007008F2027108031CF303F3020130031029
:100C9800F10CF00CFF3E031D4B2E0130F502031D35
:100CA800562E572E3A2E7608031D5B2E602EF2091B
:100CB800F309F20A0319F30A7308F101F10772083C
:100CC800F001F00708000310003003180130F600A7
:100CD800F11F6F2E702E782EF009F109F00A031912
:100CE800F10AF6010314F60DF31F7B2E7C2E852ED8
:100CF800F209F309F20A0319F30A0130F40074083F
:100D0800F6060030F7000030F80071087004031987
:100D18008E2E8F2EC72EF5010314F50D9E2E013051
:100D28000310F00DF10DFF3E031D942E0130F40069
:100D38007408F507F11FA12EA22E932E013003107F
:100D4800F70DF80DFF3E031DA32E71087302031D56
:100D5800AF2E70087202031CB22EB32EBA2E700882
:100D6800F2027108031CF303F30277140130031035
:100D7800F10CF00CFF3E031DBB2E0130F502031DE4
:100D8800C62EC72EA22E7608031DCB2ED02EF7090D
:100D9800F809F70A0319F80A7808F101F107770842
:100DA800F001F00708008316031387018801860104
:100DB8000A128A11EE250A128A11003083120313CF
:100DC800AC000030AD00F02F0A30F0000030F10028
:100DD8002D08F301F3072C08F201F2070A128A1111
:100DE80067260A128A11710883120313A901A90739
:100DF8007008A801A8070A30F0000030F1002D089B
:100E0800F301F3072C08F201F2070A128A110726E8
:100E18000A128A11710883120313A101A10770082D
:100E2800A001A0070A30F0000030F1002908F30102
:100E3800F3072808F201F2070A128A1167260A1234
:100E48008A11710883120313AB01AB077008AA015A
:100E5800AA070A30F0000030F1002908F301F3076F
:100E68002808F201F2070A128A1107260A128A11C3
:100E7800710883120313A301A3077008A201A20734
:100E88000A30F0000030F1002B08F301F3072A08BC
:100E9800F201F2070A128A1167260A128A117108EA
:100EA80083120313A501A5077008A401A4070A303B
:100EB800F0000030F1002B08F301F3072A08F201D3
:100EC800F2070A128A1107260A128A117108831278
:100ED8000313A701A7077008A601A60780300A1206
:100EE8008A11C8250A128A11831203132408303E76
:100EF8000A128A11DB250A128A11831203132608A3
:100F0800303E0A128A11DB250A128A118312031352
:100F18002208303E0A128A11DB250A128A1183122E
:100F280003132008303E0A128A11DB250A128A119F
:100F3800013083120313AC070318AD0A0030AD0764
:100F4800F930F9006400F90BA62FAA2F6400831268
:100F580003132D08803AFE0087307E02031DB62F4A
:100F6800D0302C02031CB92FBA2FCE2F83120313B3
:100F78002D08803AFE0088307E02031DC52FFD3003
:100F88002C020318C82FC92FCE2F01308312031348
:100F98008600F02F2D08803AFE009B307E02031D4C
:100FA800D72F58302C02031CDA2FDB2FEF2F831298
:100FB80003132D08803AFE009F307E02031DE62FA2
:100FC80041302C020318E92FEA2FEF2F013083124A
:100FD80003138600F02F86012D08803AFE00A73003
:100FE8007E02031DF92F10302C02031CFC2FFD2F4D
:080FF800E82E0A128A110028FC
:02400E00723FFF
:00000001FF
