:060000000A128A11902B88
:1007200083010A128A11C72EF10071088312031384
:100730008800071087100715F930F0006400F00BEF
:100740009E2BA22B64008312031307110800F100F3
:100750007108831203138800071487100715F930F6
:10076000F0006400F00BB12BB52B6400831203136F
:100770000711080038300A128A1194230A128A11CC
:1007800001300A128A1194230A128A1106300A12C1
:100790008A1194230A128A110C300A128A119423A6
:1007A0000A128A1108000310003003180130831266
:1007B0000313AD00AB1FDD2BDE2BE62BAA09AB0923
:1007C000AA0A0319AB0AAD010314AD0D2A08F00003
:1007D0002B08F100F2018E30FC007C08F3002D089C
:1007E000FD007D08F4000A128A11D1240A128A1130
:1007F000700883120313AA007108AB007208AC00E2
:1008000008000310003003180130F600F31F092C14
:100810000A2C122CF209F309F20A0319F30AF60161
:100820000314F60DF11F152C162C1B2CF009F109E1
:10083000F00A0319F10A710870040319202C212C05
:10084000512CF5010314F50D302C01300310F00D7F
:10085000F10DFF3E031D262C0130F4007408F5074E
:10086000F11F332C342C252C71087302031D3A2CF4
:1008700070087202031C3D2C3E2C442C7008F202BE
:100880007108031CF303F30201300310F10CF00CA8
:10089000FF3E031D452C0130F502031D502C512C49
:1008A000342C7608031D552C5A2CF209F309F20A50
:1008B0000319F30A7308F101F1077208F001F00758
:1008C00008000310003003180130F600F11F692CF6
:1008D0006A2C722CF009F109F00A0319F10AF601E9
:1008E0000314F60DF31F752C762C7F2CF209F309F7
:1008F000F20A0319F30A0130F4007408F606003016
:10090000F7000030F800710870040319882C892C56
:10091000C12CF5010314F50D982C01300310F00DD6
:10092000F10DFF3E031D8E2C0130F4007408F50715
:10093000F11F9B2C9C2C8D2C01300310F70DF80D12
:10094000FF3E031D9D2C71087302031DA92C700826
:100950007202031CAC2CAD2CB42C7008F20271088E
:10096000031CF303F302771401300310F10CF00CB5
:10097000FF3E031DB52C0130F502031DC02CC12C18
:100980009C2C7608031DC52CCA2CF709F809F70A18
:100990000319F80A7808F101F1077708F001F00768
:1009A00008007308031DD52CDC2C72087104700438
:1009B000031DDB2CDC2CE32C0030F0000030F100B8
:1009C0000030F200452DF02C0130F5007508F307DA
:1009D00001300310F20CF10CF00CFF3E031DE92C6A
:1009E000FE307205031DF52CF62CE42C0D2D013084
:1009F000F5007508F3070130F007003003180130E7
:100A0000F107003003180130F20701300310F20C37
:100A1000F10CF00CFF3E031D062DFF307205031D87
:100A2000122D132DF72C1E2D0130F302013003106F
:100A3000F00DF10DF20DFF3E031D172DF11F212DBD
:100A4000222D142D7318252D262D2C2DFF30F00569
:100A50007F30F105FF30F2050310F30C7308F50049
:100A6000F601F70110300310F50DF60DF70DFF3EFE
:100A7000031D332D7508F0047608F1047708F2049D
:100A80007408031D442D452DF217080078088312C1
:100A90000313A0007908A1007A08A2000310210D19
:100AA000220DA3002308A900A908031D582D592DC4
:100AB000622D0030FB000030FA000030F9000030F9
:100AC000F800E12D7808A0007908A1007A08A200BA
:100AD00017300310A20CA10CA00CFF3E031D692DC2
:100AE0002008A3002308A400F917FF30F805FF3001
:100AF000F9050030FA057808A5007908A6007A08FB
:100B0000A700A8018E30A902A91F872D882DAA2D24
:100B10002908803A8F3E03188E2D8F2D982D003096
:100B2000FB000030FA000030F9000030F800E12D41
:100B300001300310A80CA70CA60CA50CFF3E031D4A
:100B4000992D0130A0002008A907031DA82DA92D6B
:100B5000982DCA2D18302902031CAF2DB02DB92DA8
:100B60000030FB000030FA000030F9000030F800DF
:100B7000E12DC52D0130A0000310A50DA60DA70D78
:100B8000A80DA00BBC2D0130A902A908031DC92D79
:100B9000CA2DBA2D2408031DCE2DD92DA509A609CD
:100BA000A709A809A50A0319A60A0319A70A031980
:100BB000A80A2808FB002708FA002608F9002508DB
:100BC000F8000800831203132E08B4002F08B500A4
:100BD0003008B6000310350D360DB7003708B800E1
:100BE000B808031DF42DF52DFC2D0030AE000030AB
:100BF000AF000030B000C62E3108B4003208B50096
:100C00003308B6000310350D360DB7003708BD00A8
:100C1000BD08031D0C2E0D2E142E0030AE0000302A
:100C2000AF000030B000C62E3D087B3EB400340853
:100C3000B8072E08B4002F08B5003008B6001030F1
:100C40000310B60CB50CB40CFF3E031D202E340867
:100C5000B7003708BD003108B4003208B5003308CA
:100C6000B60010300310B60CB50CB40CFF3E031DDB
:100C7000322E3408B7003708BD068030B40034087F
:100C8000BD05AF17B217FF30B105FF30B205003018
:100C9000B3050030B9000030BA000030BB000730A7
:100CA000B4003408BC002E1C562E572E672E310877
:100CB000B907320803110318320A0319602EBA0764
:100CC000330803110318330A0319672EBB070130D9
:100CD0000310B00CAF0CAE0CFF3E031D682E0130AC
:100CE0000310B10DB20DB30DFF3E031D702E013088
:100CF000BC02031D7C2E7D2E532E0930B400340817
:100D0000BC002E1C842E852E952E3108B907320882
:100D100003110318320A03198E2EBA073308031180
:100D20000318330A0319952EBB0701300310B00CCA
:100D3000AF0CAE0CFF3E031D962E01300310BB0C12
:100D4000BA0CB90CFF3E031D9E2E0130BC02031DE0
:100D5000AA2EAB2E812E3908F0003A08F1003B088C
:100D6000F2003808B4003408F3003D08B500350837
:100D7000F4000A128A11D1240A128A11700883120F
:100D80000313AE007108AF007208B0000800013014
:100D9000831603138600831203138601831603133D
:100DA00088018312031388018316031387018312BA
:100DB000031387010A128A11BA230A128A118312B5
:100DC000031390018F018E0186140330BE00BE0B09
:100DD000E72E831203138610ED2E061CF02EF12E43
:100DE000ED2E1014F32E0618F62EF72EF32E1010FB
:100DF0000F08BE00BF010830FE000310BE0DBF0D7E
:100E0000FE0BFD2E0E083E04C1003F08C200420842
:100E1000AB01AB074108AA01AA070A128A11D32322
:100E20000A128A11831203132A08B1002B08B20098
:100E30002C08B3004430AE008B30AF003C30B00023
:100E40000A128A11E2250A128A11831203132E084C
:100E5000F8002F08F9003008FA000A128A11462516
:100E60000A128A11790883120313CC01CC0778087F
:100E7000CB01CB070A30F0000030F1004C08F30141
:100E8000F3074B08F201F2070A128A1161240A12D1
:100E90008A11710883120313CE01CE077008CD01A9
:100EA000CD070A30F0000030F1004C08F301F307E1
:100EB0004B08F201F2070A128A1101240A128A1160
:100EC000710883120313C401C4077008C301C30768
:100ED0000A30F0000030F1004E08F301F3074D082E
:100EE000F201F2070A128A1161240A128A117108AA
:100EF00083120313D001D0077008CF01CF070A3047
:100F0000F0000030F1004E08F301F3074D08F20144
:100F1000F2070A128A1101240A128A117108831237
:100F20000313C601C6077008C501C5070A30F000E3
:100F30000030F1005008F301F3074F08F201F20707
:100F40000A128A1161240A128A117108831203138A
:100F5000C801C8077008C701C7070A30F000003091
:100F6000F1005008F301F3074F08F201F2070A12EB
:100F70008A1101240A128A11710883120313CA010B
:100F8000CA077008C901C90780300A128A11942360
:100F90000A128A11831203134708303E0A128A117B
:100FA000A7230A128A11831203134908303E0A123A
:100FB0008A11A7230A128A11831203134508303EAF
:100FC0000A128A11A7230A128A11831203134308F3
:100FD000303E0A128A11A7230A128A1103308312A3
:100FE0000313C0008830BF005630BE00BE0BF62F82
:100FF000BF0BF62FC00BF62FE22E0A128A11002823
:02400E00723FFF
:00000001FF
