:060000000A128A11722BA6
:1006E40083010A128A11A92EF100710883120313DF
:1006F4008800071087100715F930F0006400F00B2C
:10070400802B842B64008312031307110800F1006B
:100714007108831203138800071487100715F93032
:10072400F0006400F00B932B972B640083120313E7
:100734000711080038300A128A1176230A128A1126
:1007440001300A128A1176230A128A1106300A121B
:100754008A1176230A128A110C300A128A1176231E
:100764000A128A11080003100030031801308312A2
:100774000313AD00AB1FBF2BC02BC82BAA09AB09B9
:10078400AA0A0319AB0AAD010314AD0D2A08F0003F
:100794002B08F100F2018E30FC007C08F3002D08D8
:1007A400FD007D08F4000A128A11B3240A128A118A
:1007B400700883120313AA007108AB007208AC001E
:1007C40008000310003003180130F600F31FEB2B70
:1007D400EC2BF42BF209F309F20A0319F30AF601DC
:1007E4000314F60DF11FF72BF82BFD2BF009F1097B
:1007F400F00A0319F10A710870040319022C032C7E
:10080400332CF5010314F50D122C01300310F00DF7
:10081400F10DFF3E031D082C0130F4007408F507A8
:10082400F11F152C162C072C71087302031D1C2CA8
:1008340070087202031C1F2C202C262C7008F20254
:100844007108031CF303F30201300310F10CF00CE4
:10085400FF3E031D272C0130F502031D322C332CDF
:10086400162C7608031D372C3C2CF209F309F20AE6
:100874000319F30A7308F101F1077208F001F00794
:1008840008000310003003180130F600F11F4B2C50
:100894004C2C542CF009F109F00A0319F10AF60161
:1008A4000314F60DF31F572C582C612CF209F3098D
:1008B400F20A0319F30A0130F4007408F606003052
:1008C400F7000030F8007108700403196A2C6B2CCF
:1008D400A32CF5010314F50D7A2C01300310F00D4F
:1008E400F10DFF3E031D702C0130F4007408F50770
:1008F400F11F7D2C7E2C6F2C01300310F70DF80DA9
:10090400FF3E031D7F2C71087302031D8B2C70089E
:100914007202031C8E2C8F2C962C7008F202710824
:10092400031CF303F302771401300310F10CF00CF1
:10093400FF3E031D972C0130F502031DA22CA32CAE
:100944007E2C7608031DA72CAC2CF709F809F70AAE
:100954000319F80A7808F101F1077708F001F007A4
:1009640008007308031DB72CBE2C720871047004B0
:10097400031DBD2CBE2CC52C0030F0000030F1004E
:100984000030F200272DD22C0130F5007508F30752
:1009940001300310F20CF10CF00CFF3E031DCB2CC4
:1009A400FE307205031DD72CD82CC62CEF2C013039
:1009B400F5007508F3070130F00700300318013023
:1009C400F107003003180130F20701300310F20C74
:1009D400F10CF00CFF3E031DE82CFF307205031DE3
:1009E400F42CF52CD92C002D0130F3020130031026
:1009F400F00DF10DF20DFF3E031DF92CF11F032D37
:100A0400042DF62C7318072D082D0E2DFF30F0053C
:100A14007F30F105FF30F2050310F30C7308F50085
:100A2400F601F70110300310F50DF60DF70DFF3E3A
:100A3400031D152D7508F0047608F1047708F204F7
:100A44007408031D262D272DF21708007808831239
:100A54000313A0007908A1007A08A2000310210D55
:100A6400220DA3002308A900A908031D3A2D3B2D3C
:100A7400442D0030FB000030FA000030F900003053
:100A8400F800C32D7808A0007908A1007A08A20014
:100A940017300310A20CA10CA00CFF3E031D4B2D1C
:100AA4002008A3002308A400F917FF30F805FF303D
:100AB400F9050030FA057808A5007908A6007A0837
:100AC400A700A8018E30A902A91F692D6A2D8C2DBB
:100AD4002908803A8F3E0318702D712D7A2D00302D
:100AE400FB000030FA000030F9000030F800C32D9C
:100AF40001300310A80CA70CA60CA50CFF3E031D87
:100B04007B2D0130A0002008A907031D8A2D8B2D01
:100B14007A2DAC2D18302902031C912D922D9B2D7A
:100B24000030FB000030FA000030F9000030F8001B
:100B3400C32DA72D0130A0000310A50DA60DA70DF0
:100B4400A80DA00B9E2D0130A902A908031DAB2DF1
:100B5400AC2D9C2D2408031DB02DBB2DA509A60981
:100B6400A709A809A50A0319A60A0319A70A0319BC
:100B7400A80A2808FB002708FA002608F900250817
:100B8400F8000800831203132E08B4002F08B500E0
:100B94003008B6000310350D360DB7003708B8001D
:100BA400B808031DD62DD72DDE2D0030AE00003041
:100BB400AF000030B000A82E3108B4003208B500F0
:100BC4003308B6000310350D360DB7003708BD00E5
:100BD400BD08031DEE2DEF2DF62D0030AE000030C4
:100BE400AF000030B000A82E3D087B3EB4003408AE
:100BF400B8072E08B4002F08B5003008B60010302E
:100C04000310B60CB50CB40CFF3E031D022E3408C1
:100C1400B7003708BD003108B4003208B500330806
:100C2400B60010300310B60CB50CB40CFF3E031D17
:100C3400142E3408B7003708BD068030B4003408D9
:100C4400BD05AF17B217FF30B105FF30B205003054
:100C5400B3050030B9000030BA000030BB000730E3
:100C6400B4003408BC002E1C382E392E492E31080D
:100C7400B907320803110318320A0319422EBA07BE
:100C8400330803110318330A0319492EBB07013033
:100C94000310B00CAF0CAE0CFF3E031D4A2E013006
:100CA4000310B10DB20DB30DFF3E031D522E0130E2
:100CB400BC02031D5E2E5F2E352E0930B4003408AD
:100CC400BC002E1C662E672E772E3108B907320819
:100CD40003110318320A0319702EBA0733080311DB
:100CE4000318330A0319772EBB0701300310B00C25
:100CF400AF0CAE0CFF3E031D782E01300310BB0C6D
:100D0400BA0CB90CFF3E031D802E0130BC02031D3A
:100D14008C2E8D2E632E3908F0003A08F1003B0822
:100D2400F2003808B4003408F3003D08B500350873
:100D3400F4000A128A11B3240A128A117008831269
:100D44000313AE007108AF007208B0000800013050
:100D54008316031386008801831203138801831604
:100D6400031387018312031387010A128A119C2338
:100D74000A128A118312031390018F018E018614C3
:100D84000330BE00BE0BC42E831203138610CA2E7A
:100D9400061CCD2ECE2ECA2E1014D02E0618D32EFD
:100DA400D42ED02E10100F08BE00BF010830FE0054
:100DB4000310BE0DBF0DFE0BDA2E0E083E04C1005B
:100DC4003F08C2004208AB01AB074108AA01AA07C9
:100DD4000A128A11B5230A128A11831203132A08EC
:100DE400B1002B08B2002C08B3004430AE008B30A5
:100DF400AF003C30B0000A128A11C4250A128A11CD
:100E0400831203132E08F8002F08F9003008FA00A3
:100E14000A128A1128250A128A11790883120313E7
:100E2400D001D0077808CF01CF070A30F000003096
:100E3400F1005008F301F3074F08F201F2070A1218
:100E44008A1143240A128A11710883120313CC01F4
:100E5400CC077008CB01CB070A30F0000030F1005A
:100E64005008F301F3074F08F201F2070A128A113E
:100E7400E3230A128A11710883120313C401C407FD
:100E84007008C301C3070A30F0000030F1004C08B9
:100E9400F301F3074B08F201F2070A128A11432403
:100EA4000A128A11710883120313CE01CE07700847
:100EB400CD01CD070A30F0000030F1004C08F301F9
:100EC400F3074B08F201F2070A128A11E3230A120C
:100ED4008A11710883120313C601C6077008C5017D
:100EE400C5070A30F0000030F1004E08F301F307A3
:100EF4004D08F201F2070A128A1143240A128A11D8
:100F0400710883120313C801C8077008C701C70713
:100F14000A30F0000030F1004E08F301F3074D08E9
:100F2400F201F2070A128A11E3230A128A117108E4
:100F340083120313CA01CA077008C901C9078030A4
:100F44000A128A1176230A128A118312031347089C
:100F5400303E0A128A1189230A128A11831203135A
:100F64004908303E0A128A1189230A128A1183120F
:100F740003134508303E0A128A1189230A128A1182
:100F8400831203134308303E0A128A1189230A127A
:100F94008A11033083120313C0008830BF00563017
:100FA400BE00BE0BD32FBF0BD32FC00BD32F831286
:100FB40003135008803AFE0080307E02031DE42FA4
:100FC4000D304F020318E72FE82FF92F303083122A
:100FD400031386000330C0008830BF005630BE00C3
:100FE400BE0BF22FBF0BF22FC00BF22FFC2F83127C
:0C0FF40003138601BF2E0A128A11002888
:02400E00723FFF
:00000001FF
